:03000000020006F5
:03005F0002000399
:0300030002006296
:10006200120206E58224FF92902090F4120272801E
:10007200FEAF82C2957E007C017D008C028D031C46
:10008200BCFF011DEA4B70F3EF23540124FF92944D
:100092008F05ED2DFDD2957B017C008B018C021B1F
:1000A200BBFF011CE94A70F3A293E4334DFFC295F2
:1000B2000EBE080040C18F8222C296120073AF8228
:1000C200850882C007120073D007D2968F8222C29F
:1000D200961200737582FF120073D29622C2961294
:1000E2000073AF827E00C3EE950C5033EE2509FB00
:1000F200E4350AFCAD0B7582FFC007C006C005C01F
:1001020004C003120073AA82D003D004D005D00623
:10011200D0078B828C838DF0EA1203190E80C7D22E
:10012200968F8222C296120073AF82AC0DAD0EAED4
:100132000F7B00C3EB9510502B8C828D838EF012B7
:100142000334FAA3AC82AD838A82C007C006C0051D
:10015200C004C003120073D003D004D005D006D06F
:10016200070B80CFD2968F8222AD82AE83AFF0C2D0
:10017200978D0D8E0E8F0F7510207582A01201269D
:10018200D2972092FD7582071200D1AF828F087537
:100192008227C0071200BBD007EF30E40D7508FFBD
:1001A2007582E11200BB75821022EF30E504758280
:1001B20020227582FF22AD82AE83AFF0758207C026
:1001C20007C006C0051200D1AC828C08758227C018
:1001D200041200BBD004D005D006D007EC30E620D4
:1001E200C2978D098E0A8F0B750C207582611200E1
:1001F200DF7508FF7582E21200BBD297758200227A
:10020200758201227511117512227513337514440A
:100212007515557516007517007518007519007556
:100222001A00C295D296C297750D11750E00750F00
:1002320040751005758230120126750916750A007F
:10024200750B40750C057582101200DF7F00BF052B
:10025200005019EF2416F98706EF2411F98705EEED
:10026200B505028004758201220F80E275820022A8
:10027200C2977508207582311200BB7508FF75821E
:10028200E21200BB750D54750E03750F80751005D3
:10029200758230120126750D59750E03750F807522
:1002A200100575822A120126750801758221120035
:1002B200BB7508017582221200BB75081A7582246B
:1002C2001200BB7508007582251200BB75080F75F8
:1002D20082261200BB75080F7582201200BBD297CE
:1002E20022AD82AE83AFF0C29775080E758220C030
:1002F20007C006C0051200BBD005D006D007D297B2
:100302008D828E838FF012016BC29775080F7582F2
:07031200201200BBD297226C
:0A035400FFFFFFFFFFFFFFFFFFFFA9
:06003500E478FFF6D8FD9F
:100013007900E94400601B7A0090035E780175A0C3
:1000230000E493F2A308B8000205A0D9F4DAF2754C
:02003300A0FF2C
:1003190020F71130F6138883A88220F509F6A883FF
:0B0329007583002280FEF280F5F022B8
:10003B007800E84400600A790175A000E4F309D860
:10004B00FC7800E84400600C7900900001E4F0A318
:04005B00D8FCD9FAFA
:0D00060075811B120350E5826003020003A8
:1003340020F71430F6148883A88220F507E6A883F2
:1003440075830022E280F7E49322E0227582002282
:00000001FF
